:020000040000FA
:100000000C9472030C949A030C949A030C949A0324
:100010000C949A030C949A030C949A030C949A03EC
:100020000C949A030C949A030C9472090C94E109B1
:100030000C949A030C949A030C949A030C949A03CC
:100040000C949A030C949A030C949A030C949A03BC
:100050000C949A030C949A030C949A030C94130C2A
:100060000C949A030C949A030C949A030C949A039C
:100070000C949A030C949A030C949A030C949A038C
:100080000C94F00D0C949A030C949A030C949A031C
:100090000C949A030C949A030C949A030C949A036C
:1000A0000C949A030C945D0C0C949A0300000000CD
:1000B000003E5B4F5B3E3E6B4F6B3E1C3E7C3E1CEE
:1000C000183C7E3C181C577D571C1C5E7F5E1C0034
:1000D000183C1800FFE7C3E7FF0018241800FFE7EB
:1000E000DBE7FF30483A060E2629792926407F05AE
:1000F0000507407F05253F5A3CE73C5A7F3E1C1CC4
:1001000008081C1C3E7F14227F22145F5F005F5F83
:1001100006097F017F006689956A6060606060946F
:10012000A2FFA29408047E040810207E2010080874
:100130002A1C08081C2A08081E101010100C1E0C7F
:100140001E0C30383E3830060E3E0E060000000011
:100150000000005F00000007000700147F147F14F8
:10016000242A7F2A1223130864623649562050003D
:1001700008070300001C2241000041221C002A1C29
:100180007F1C2A08083E0808008070300008080814
:100190000808000060600020100804023E51494534
:1001A0003E00427F400072494949462141494D3352
:1001B0001814127F1027454545393C4A49493141B9
:1001C000211109073649494936464949291E000087
:1001D00014000000403400000008142241141414DC
:1001E0001414004122140802015909063E415D59C8
:1001F0004E7C1211127C7F494949363E41414122D1
:100200007F4141413E7F494949417F090909013EFA
:10021000414151737F0808087F00417F4100204021
:10022000413F017F081422417F404040407F021C33
:10023000027F7F0408107F3E4141413E7F0909094A
:10024000063E4151215E7F09192946264949493216
:1002500003017F01033F4040403F1F2040201F3FDC
:100260004038403F63140814630304780403615961
:10027000494D43007F4141410204081020004141A3
:10028000417F04020102044040404040000307084F
:100290000020545478407F2844443838444444284B
:1002A000384444287F385454541800087E090218F2
:1002B000A4A49C787F0804047800447D400020407A
:1002C000403D007F1028440000417F40007C0478BE
:1002D00004787C080404783844444438FC18242406
:1002E0001818242418FC7C08040408485454542486
:1002F00004043F44243C4040207C1C2040201C3C03
:100300004030403C44281028444C9090907C4464F9
:10031000544C44000836410000007700000041368C
:10032000080002010204023C2623263C1EA1A16112
:10033000123A4040207A3854545559215555794144
:100340002154547841215554784020545579400C1B
:100350001E527212395555555939545454593955FC
:100360005454580000457C410002457D420001453F
:100370007C40F0292429F0F0282528F07C545545AC
:10038000002054547C547C0A097F4932494949323F
:100390003248484832324A4848303A4141217A3A54
:1003A00042402078009DA0A07D39444444393D401E
:1003B00040403D3C24FF2424487E4943662B2FFCCB
:1003C0002F2BFF0929F620C0887E09032054547979
:1003D000410000447D413048484A32384040227A4A
:1003E000007A0A0A727D0D19317D2629292F2826C7
:1003F0002929292630484D402038080808080808CF
:100400000808382F10C8ACBA2F102834FA00007B27
:10041000000008142A142222142A1408950022002D
:1004200095AA005500AAAA55AA55AA000000FF00E7
:10043000101010FF00141414FF001010FF00FF1024
:1004400010F010F0141414FC001414F700FF000056
:10045000FF00FF1414F404FC141417101F10101FD5
:10046000101F1414141F00101010F0000000001FC3
:10047000101010101F10101010F010000000FF10CE
:100480001010101010101010FF10000000FF1400CA
:1004900000FF00FF00001F10170000FC04F41414FC
:1004A0001710171414F404F40000FF00F7141414C8
:1004B00014141414F700F7141414171410101F1048
:1004C0001F141414F4141010F010F000001F101F6B
:1004D0000000001F14000000FC140000F010F010D9
:1004E00010FF10FF141414FF141010101F00000050
:1004F00000F010FFFFFFFFFFF0F0F0F0F0FFFFFF54
:100500000000000000FFFF0F0F0F0F0F38444438AA
:10051000447C2A2A3E147E02020606027E027E02E5
:1005200063554941633844443C04407E201E200604
:10053000027E020299A5E7A5991C2A492A1C4C7241
:1005400001724C304A4D4D303048784830BC625AC8
:10055000463D3E494949007E0101017E2A2A2A2A58
:100560002A44445F444440514A444040444A514034
:100570000000FF0103E080FF000008086B6B0836F5
:1005800012362436060F090F060000181800000066
:100590001010003040FF0101001F01011E00191D55
:1005A0001712003C3C3C3C0000000000F0F89C8E20
:1005B0008783878E9CF8F00000FEFF03030303038C
:1005C000070EFCF80000FEFF0303030303070EFC05
:1005D000F80000FFFF00000000000000FFFF000027
:1005E000FEFF8383838383C7EE7C380000F8FC0E14
:1005F00007030303070EFCF800003F7FE0C0808084
:10060000C0E07F3FFFFF01010101010101FFFF0089
:1006100000FFFF0C0C0C0C1C3E77E3C100007FFFB9
:10062000C0C0C0C0C0E0703F1F00001F3F70E0C0EE
:10063000C0C0E0703F1F00007FFFC1C1C1C1C1E366
:10064000773E1C00001F3F70E0C0C0C0E0703F1F3D
:10065000000000000001FFFF01000000D5F08D1434
:10066000A1C881CFD9F1AF2000C0A0D92181FFA8B6
:1006700000A800A83F080B000202020000090400C5
:1006800000010202000005240010010524010101FF
:10069000042402060524060001070581031000401A
:1006A00009040100020A00000007050202400000E0
:1006B000070583024000000403090412010002EF51
:1006C00002014041233680000101020301417264AE
:1006D00075696E6F204C4C430041726475626F798E
:1006E00000003A0E11241FBECFEFDAE0DEBFCDBF0F
:1006F00011E0A0E0B1E0EAEFF5E202C005900D9252
:10070000A636B107D9F726E0A6E6B1E001C01D92F2
:10071000A438B207E1F713E0C2E7D3E004C02197A1
:10072000FE010E94EE12C137D107C9F70E94570E91
:100730000C94FB120C9400002F923F924F925F9208
:100740006F927F928F929F92AF92BF92CF92DF92E1
:10075000EF92FF920F931F93CF93DF9300D000D0BF
:10076000CDB7DEB76A01E62E43E0442EA0E3B2E047
:10077000F22FBB24682E969596959695E1E001FDA3
:10078000E4E000FDEE0F02FDE2955FEF5E9F1001D9
:10079000209430941595079515950795159507950F
:1007A000402F4F3F4CF44095941B40FC440F489F12
:1007B000C00CD11CEB1C4FEF37FF0BC0620E40FE8C
:1007C00002C0220F331FC21AD30AEB0837FDE3948D
:1007D000FF2750E845030F0EA00DB11D5F1B6516E6
:1007E00008F0652E57E0541B591714F4952FB39455
:1007F00050E85619682F772741FC02C06619770B1D
:1008000040FE02C0660F771F1124A42EFE2E00901A
:100810002E02D00C00902F02E01C19C0729843E009
:100820004EBDC60ED71EE11C7724861509F07394C1
:100830000CD0EEBC07D0DEBC05D0CEBC03D01EBCB5
:1008400003D00895C8950000C895C8950895C61AA4
:10085000D70AE108E3DFA1141CF0992371F564C005
:10086000A058BF4F962C40FC0CC02EB51EBC2F9D2F
:100870008C90832081288D92C89500C09A94A9F706
:1008800011C02EB51EBC2F9D9001DEDF2EB41EBC04
:100890002F9C10018C9030948320832A8D92C895D0
:1008A0009A9479F71124A619B1099A9509F45CC0B4
:1008B000772019F00DB4729AB1DFFD01E058FF4FB7
:1008C000962C40FC0EC02EB51EBC2F9D8C90822015
:1008D00080288D9280808320812881929A9499F734
:1008E00016C02EB51EBC2F9D90018C903080AEDFBF
:1008F00000C02EB41EBC2F9C00948020822A8D92B2
:1009000010943120332A319200009A9451F7112427
:10091000A50FB11D9A9561F6BB2031F1772021F02A
:100920000DB4729A7BDFC89540FC0CC02EB51EBC7E
:100930002F9D8C90822080288D92C89500C06A944B
:10094000A9F712C02EB51EBC2F9D90017DDF9EB56C
:100950001EBC9F9D902D8C9090958922822A8D920D
:10096000C8956A9479F7C8951124729A0DB40F90BE
:100970000F900F900F90DF91CF911F910F91FF90EB
:10098000EF90DF90CF90BF90AF909F908F907F902F
:100990006F905F904F903F902F9008958FB7F8948D
:1009A00090912B019F3F31F091E090932D0290E2C6
:1009B00090932C028FBF0895E0E3F2E0A0E0B8E04E
:1009C00000800EBC8111012C1197A0FDFDCF01927A
:1009D000B9F70DB40895FC0180912B02882311F121
:1009E0003FB7F89482E08093E9002091F200822FD3
:1009F00090E01816190614F481E090E0882339F08D
:100A0000289844E640932A024091F1004083222333
:100A100039F02091F200211103C02BE62093E80069
:100A20003FBF08958FEF9FEF08952FB7F89483E0AD
:100A30008093E9009091E800892F807295FF04C0AF
:100A40009091F20080E4891B2FBF089580912202CB
:100A500081110DC082E080931E0284E080931F020A
:100A6000109221021092200281E0809322028EE1F6
:100A700092E00895CF93DF931F92CDB7DEB76983DD
:100A8000DC01ED91FC910280F381E02D41E050E02A
:100A9000BE016F5F7F4F09950F90DF91CF91089551
:100AA00083E08093E9008091F200882319F08AE3C3
:100AB0008093E80008950E94150590E00895CF9373
:100AC000DF931F92CDB7DEB7FC018485958597FD36
:100AD00008C02FEF3FEF358724870F90DF91CF912C
:100AE0000895CE0101960E94EB04019719F48981C3
:100AF00090E0F3CF8FEF9FEFF0CF0F931F93CF9343
:100B0000DF931F92CDB7DEB78C01FC0184859585FC
:100B100097FF0BC0CE0101960E94EB04019771F480
:100B2000898190E0F80195878487F801848595850F
:100B30000F90DF91CF911F910F9108958FEF9FEF4D
:100B4000F1CFFC018485958597FD0BC09FB7F89484
:100B500082E08093E9008091F2009FBF90E00196CF
:100B600008959FB7F89482E08093E9008091F200A5
:100B70009FBF90E008954091180250911902209172
:100B800016023091170242175307B4F49091E8000F
:100B90009570E1F39091E80092FD19C08093F10007
:100BA000809118029091190201968F739927892BD1
:100BB00019F48EEF8093E800809118029091190249
:100BC0000196909319028093180281E0089580E0C5
:100BD0000895DF92EF92FF920F931F93CF93DF93CD
:100BE000D82E8A01EB017B01E40EF51ECE15DF0540
:100BF00059F0D7FE12C0FE0184910E94BB052196D8
:100C00008111F4CF0FEF1FEFC801DF91CF911F913A
:100C10000F91FF90EF90DF9008958881EECF0F93B2
:100C20001F93CF93DF931F92CDB7DEB782E0898306
:100C300042E450E065E776E080E80E94E9050E9422
:100C40002605DC0112960D911C910115110589F004
:100C5000D801ED91FC910280F381E02DBE016F5F20
:100C60007F4FC801099597FD04C0F80100851185E3
:100C7000ECCF89810F90DF91CF911F910F91089553
:100C8000615030F02091F100FC0120830196F8CFF3
:100C9000289884E680932A020895811105C081E096
:100CA000611106C080E004C0813019F46230D0F3D5
:100CB000089581E06330E0F7F5CFAF92BF92CF9215
:100CC000DF92EF92FF920F931F93CF93DF936C010C
:100CD0007B018B01040F151FEB015E01AE18BF08ED
:100CE000C017D10759F06991D601ED91FC9101909F
:100CF000F081E02DC6010995892B79F7C501DF91B7
:100D0000CF911F910F91FF90EF90DF90CF90BF9008
:100D1000AF9008958FB18095807F669B88601C9B03
:100D2000846008958EBD00000DB407FEFDCF0895C8
:100D300090E1282F81E061FD84E060FD880F62FD75
:100D40008295687F969FD0011124A20FA05DBD4FB0
:100D50000C90082A40FF08260C9208959091FE01FD
:100D6000982329F49091FF01982381E009F480E011
:100D700008950DB407FEFDCF8EB5729A0895FC015B
:100D80006150704021F00E94CB068193F9CF0E9400
:100D9000B906808308950DB407FEFDCF8EB51EBC45
:100DA000089572980E94E906862F0E94E906852F11
:100DB0000E94E906842F0C94E906462F50912E02DA
:100DC000570F60912F02681F83E00E94D1061EBC5E
:100DD00008958EBD00008EB50DB407FEFCCF0895BA
:100DE000FC010E948A07319728F068517C4F8F4F91
:100DF0009F4FF9CFAB01FC010E948A07641775076A
:100E00008E079F07C8F308958F929F92AF92BF926B
:100E1000CF92DF92EF92FF920F931F93CF93DF93C6
:100E20006C017B018A0180912A01882309F45AC050
:100E300080912B02882309F455C080911D0280FF08
:100E400005C08091E00082608093E000E801B12C51
:100E50008AEFA82E93E0892E2AE3922E209711F490
:100E6000BB20C9F10E941505811108C0AA94AA20CF
:100E7000C9F181E090E00E94F006F0CF8C171D06CA
:100E800011F00CF08C2F9FB7F8948092E90020911C
:100E9000E80025FD02C09FBFE1CF282F30E0C21B34
:100EA000D30BF701815020F041914093F100FACF2C
:100EB000E20EF31EBB2021F09092E800B12CEBCFA4
:100EC0008091E80085FDE7CF9092E800BB24B394C1
:100ED000209709F3F3CF5D9884E680931C021016E7
:100EE00011063CF081E090E0F6019383828310E0EC
:100EF00000E0C801DF91CF911F910F91FF90EF901B
:100F0000DF90CF90BF90AF909F908F90089590E02A
:100F10000C94F006A6EFB1E02FB7F8947D918D9177
:100F20009C9166B52FBFA89B05C06F3F18F47F5FEB
:100F30008F4F9F4F22E0660F771F881F991F2A95BA
:100F4000D1F708956F927F928F92AF92BF92CF9216
:100F5000DF92EF92FF920F931F93CF93DF93C09096
:100F60000302C394C394AC2CB12CDCE0D12CE12C53
:100F700000910402109105028091060290910702EF
:100F80000817190770F5C0910A02CF5FC7708091EA
:100F90000B02C81731F1F0900A02609000027090C5
:100FA000010280900202882DB3010E94DD06FD9EA1
:100FB000C0011124B50180579E4F0E94BF066C0CE2
:100FC0007D1C8E1C609200027092010280920202CF
:100FD0000F5F1F4F1093050200930402C0930A0293
:100FE000C7CFDF91CF911F910F91FF90EF90DF90CE
:100FF000CF90BF90AF908F907F906F9008956F9239
:101000007F928F929F92AF92BF92CF92DF92EF9298
:10101000FF920F931F93CF93DF936D3081F0009178
:101020000E0210910F026A30D9F410921102109240
:101030001002085F1F4F10930F0200930E0281E011
:1010400090E0DF91CF911F910F91FF90EF90DF9093
:10105000CF90BF90AF909F908F907F906F900895AA
:10106000C62FE0901002F0901102D091150260910D
:1010700009018D2F0E944D06782E60E08D2F0E9471
:101080004D06682E78122FC0672D8D2F0E944D06B9
:10109000782E570126E0A20EB11CE701480188E036
:1010A000880E911CCA15DB0509F44FC0680117FFB3
:1010B00002C0D12CC12CC401E1E48E16910414F0BD
:1010C00080E490E0C816D90664F4C038D10528F44D
:1010D000472DB601CE010E949806FFEFCF1ADF0A16
:1010E000EACF2196DFCF25E0C29FE0011124C4554D
:1010F000DF4F5701D12C85E0C12CD81629F0CE0145
:101100000196FE01C490EC01912C812C462DC0FC6F
:10111000472DF0E8AF16B10448F4B801680D791D09
:101120006034710518F4C5010E949806C6942FEF2B
:10113000821A920A88E08816910441F7D394EFEF5F
:10114000AE1ABE0AF6E0DF12D6CF26E0E20EF11CA0
:10115000F0921102E092100272CF30E73CBDDC0148
:1011600030E8439FC0011124A80FB91F5E91352FAD
:101170006111372F3C93C89500C052235EBD019783
:10118000A9F704D003D030E50DB43CBD08950E940A
:10119000CE0480911E018A3F50F48F5F80931E0120
:1011A00088E090E09093130280931202089580E00B
:1011B000F5CF0E94CE0480911E01882351F081500A
:1011C00080931E0188E090E09093130280931202B6
:1011D00008958AEFF5CFAF92BF92CF92DF92EF9250
:1011E000FF920F931F93CF93DF93EC015B01690193
:1011F000E42E842FB9010E94DD060E94CB06F82E52
:101200000E94B906C038D1050CF03EC090E4A91682
:10121000B1040CF039C02F2D30E0A9014C0F5D1F37
:10122000141615060CF030C0E82FF0E0AF014A0D9F
:101230005B1D141615060CF027C0FE2FEE27EF29B4
:10124000F32B92E0C90ED11CE11C93E001151105AE
:10125000A1F086958695869590FD880F8F9D9001CB
:10126000219FD00CE11C309FD00CE11C319FE00C81
:10127000209FC00CD11C1124E11C85019E016E2D04
:10128000A601CF010E949C03DF91CF911F910F9186
:10129000FF90EF90DF90CF90BF90AF9008951F9395
:1012A000CF93DF93EC01162F5C98FE018591EF013F
:1012B0000E9492061150C9F75C9ADF91CF911F915D
:1012C0000895089590E080E00895FC0101900020C9
:1012D000E9F73197AF01481B590BBC0180E896E054
:1012E0000C945D061F920F920FB60F9211248F93EC
:1012F0009F938091E1009091E100937F9093E100B2
:1013000083FF0FC01092E90091E09093EB001092E0
:10131000EC0092E39093ED0010922B0298E09093F2
:10132000F00082FF22C093E09093E9009091F200D8
:10133000992319F09AE39093E80090911C02992365
:1013400041F090911C02915090931C02911101C0A8
:101350005D9A90912A02992341F090912A0291502E
:1013600090932A02911101C0289A84FF18C080919D
:10137000E2008E7E81608093E2008091E1008F7EAA
:101380008093E10080911D028E7E806180931D021A
:101390009F918F910F900FBE0F901F90189580FF17
:1013A000F7CF8091E2008E7E80618093E200809191
:1013B000E1008E7E8093E10080911D028E7E81602F
:1013C000E5CF1F920F920FB60F921124CF92DF92AA
:1013D000EF92FF920F931F932F933F934F935F933F
:1013E0006F937F938F939F93AF93BF93EF93FF93ED
:1013F000CF93DF93CDB7DEB76C97DEBFCDBF109232
:10140000E9008091E80083FF25C068E0CE014596A1
:101410000E94400682EF8093E8008D8987FF39C0E3
:101420009091E80090FFFCCF982F907609F034C19E
:101430009E894F89588D2F89F88C911131C0803841
:1014400061F580911B028093F1001092F1008EEF04
:101450008093E8006C960FB6F894DEBF0FBECDBF48
:10146000DF91CF91FF91EF91BF91AF919F918F91BC
:101470007F916F915F914F913F912F911F910F91AC
:10148000FF90EF90DF90CF900F900FBE0F901F90C6
:1014900018959EEF9093E800C7CF1092F100D5CF3A
:1014A000913059F48111D3CF4130510581F68091AB
:1014B0001B028D7F80931B02CACF933049F48111A8
:1014C000C6CF4130510519F680911B028260F2CFE0
:1014D000953041F48091E80080FFFCCF2068209394
:1014E000E300B5CF963009F0A9C00B8D1C8D22E02A
:1014F0001092E9001092190210921802F2122EC0F6
:1015000010921702109216020E940F061F8299E095
:101510009983FA8291E09E8390EA98879AEF99875F
:101520002091180230911902275F3F4F3C832B8393
:101530008D831092E90010921902109218021093F4
:1015400017020093160249E050E0BE016F5F7F4F23
:1015500080E00E94E9050E940F0679CF10931702E0
:10156000009316020E942605DC0112960D911C9133
:101570000115110509F451C1D801ED91FC910480C8
:10158000F581E02DBE016B5E7F4FC8010995009784
:1015900009F03EC1F80100851185EACFF3E0FF12A2
:1015A0000EC08F89882309F440C0823061F440E87E
:1015B00067E089ED96E00E94070E811148CF81E235
:1015C0008093EB0047CF813029F440E86BE08DEC4D
:1015D00096E0F1CF833099F70E942605DC01129640
:1015E000ED90FC908E010F5F1F4F6801E114F10434
:1015F00079F0D701ED91FC910680F781E02DB801DB
:10160000C7010995080F111DF701E084F184EECFA1
:10161000D8011C92F60101900020E9F73197BF0133
:101620006C197D0940E0C601C6CF67EB76E0FB018F
:10163000449150E080E80E94E90509CF973009F411
:10164000BECF983021F481E08093F10000CF993033
:1016500009F0FDCE837009F0B2CFEDE2F1E081E058
:1016600031E096E32191222371F08093E9003093D9
:10167000EB00DF0111972C912093EC009093ED008B
:101680008F5F873079F78EE78093EA001092EA0047
:101690008F8980932B02DBCE8B8D9C8D1092E9007D
:1016A000109219021092180290931702809316025A
:1016B000898D811192C08E899D89913A49F4813238
:1016C00009F07DCF47E050E063E271E080E0B3CF06
:1016D000913209F074CF833269F48F89988DB0E02C
:1016E000A0E080931F0190932001A0932101B0936B
:1016F0002201ADCE803269F48091E80082FFFCCFF8
:1017000067E083E291E00E9440068BEF8093E8005F
:101710009ECE823209F09BCE8F8980932A01EEEF14
:10172000FFE7859194918B3F9C4D51F1E0E0F8E00B
:101730008091230190912401A0912501B09126016F
:10174000803B9440A105B105F1F480912A0180FD10
:101750001AC0EE3F8AE0F80789F587E797E791839B
:1017600080838091600080931A0288E19BE00FB62D
:10177000F894A895809360000FBE9093600067CEA8
:10178000EEEFFAE0D5CF808191818737974709F056
:101790005ECEA89580916000886180936000809102
:1017A0001A0280936000EE3F2AE0F20789F08091F0
:1017B000FE0A9091FF0A9183808349CE80819181B6
:1017C0008737980751F29093FF0A8093FE0AC5CF9E
:1017D0001092FF0A1092FE0A3ACE0E942605DC0102
:1017E00012960D911C910115110509F4E8CED8014E
:1017F000ED91FC910190F081E02DBE016B5E7F4F79
:10180000C8010995811123CEF80100851185EBCF20
:10181000181619060CF41BCED2CEF1E0FF12BECE84
:101820006BEB76E004CF0F920FB68F939F93EF93FD
:10183000FF938091F1018D5F8D3708F08D57809374
:10184000F101E2EFF1E080818E4F808391819F4F23
:10185000918382818F4F828383818F4F8383E6EFD1
:10186000F1E080818F5F808381818F4F81838281CE
:101870008F4F828383818F4F83838FB18F6066996F
:101880001C9B88278F3681F48091F001981B96303D
:1018900068F0E0E0F8E087E78083818388E1809367
:1018A0006000F0936000FFCF9093F001FF91EF9103
:1018B0009F918F910FBE0F9018951F920F920FB6A8
:1018C0000F921124FF920F931F932F933F934F93E7
:1018D0005F936F937F938F939F93AF93BF93CF93B8
:1018E000DF93EF93FF9380912B018F3F31F0409175
:1018F0000A014150C1F040930A01FF91EF91DF913D
:10190000CF91BF91AF919F918F917F916F915F9197
:101910004F913F912F911F910F91FF900F900FBE0C
:101920000F901F90189584E080930A0180912D02FA
:10193000882379F080912C0281110BC08FE780936E
:10194000CF00109272008FEF80932B0110922D0226
:10195000D4CF80912B01811175C080912D0281110E
:1019600071C08091080290910902892B39F481E0BD
:1019700080932D0280E280932C02BFCF90910B02C6
:1019800080910A02981304C08FE78093CF00B5CFEF
:10199000E0910B028CE0E89FF0011124E057FE4F2C
:1019A000808187FD26C08C5E80938F01818190E0CD
:1019B00090938E0180938D01F0900302C7E7D1E0F0
:1019C000329620E430E000E010E1F416D1F06191AD
:1019D00067FF11C06F77605489F0062E000C770BFB
:1019E000C8010E94B91269937993260F371F4F5F80
:1019F000ECCF80E0D9CF6054770BF5CF70E060E09A
:101A0000F2CF4FE7429FC001439F900D1124909366
:101A10008C0180938B0140E150E06FE770E087E636
:101A200091E00E94F41280910B028F5F8770809387
:101A30000B0280910802909109020197909309028C
:101A40008093080220912B012F7080912D0281112B
:101A500072C060918F01662389F180912B010E94F1
:101A6000AD12911168C040918D0150918E013FE7F8
:101A7000349FC001359F900D1124F0900302A7E719
:101A8000B1E050E040E030E08901015011094F150C
:101A900008F054C0CD91DD91F801E41BF50BEF7017
:101AA000FF27E959FE4FE081EC9FB001ED9F700DDB
:101AB0001124861B970B4F5F5F4FE9CF8091660122
:101AC000E82FF0E0EE5FFE4F608140910001509101
:101AD00001019BE3699F400D511D1124A52FBB27D8
:101AE0006A0F7B2F711D7093010160930001408389
:101AF0008F5F8730D1F080936601809166018823E3
:101B0000B9F08150990B8E5F9E4FFC0140814F5779
:101B1000550B60918D0170918E01469FC001479FCA
:101B2000900D569F900D1124A8CF10926601E5CF1D
:101B300086E090E0E8CF90E080E09FCF40918B017D
:101B400050918C01840F951F66E0959587956A9555
:101B5000E1F78F3F910519F014F08FEF90E097FFB8
:101B600002C090E080E040912C024423E1F05091CB
:101B70002D02FC01EF57F109A42FB0E0552321F10C
:101B8000EA9FC001EB9F900DFA9F900D112497FDE5
:101B90004F9655E0959587955A95E1F781589F4F57
:101BA000415040932C0229593E4FF9018083809384
:101BB000CF0080912B018F5F80932B01803B08F435
:101BC0009CCE10922B0199CE60E270E06A1B7B0BD9
:101BD0006E9FC0016F9F900D7E9F900D1124D7CFF7
:101BE0001F920F920FB60F9211248F939F9382E44E
:101BF00096E0909399008093980081E08093FC0197
:101C00009F918F910F900FBE0F901F901895EF929C
:101C1000FF920F931F93CF93DF93F82E192FE62E89
:101C2000042F81E0860F880F0E94BB0583E00E948D
:101C3000BB05CF2DD12FEC0EFD2EF11CCE15DF05EF
:101C4000B9F007FF13C0FE0184910E94BB05182F55
:101C500080E00E94BB05812321968111EFCFDF91A7
:101C6000CF911F910F91FF90EF9008958881EDCF54
:101C700081E0F5CFE0E3F6E01382128288EE93E094
:101C8000A0E0B0E084839583A683B78387E391E0E7
:101C9000918380838FEF9FEF95878487E0E8F6E05C
:101CA0001382128289E491E0918380830895CDB7F5
:101CB000DEB7A597DEBFCDBF789483E084BD83E017
:101CC00085BD81E080936E00E1E8F0E083E08083F1
:101CD000E0E881E08083E1E983E08083E0E981E07E
:101CE0008083E1EC87E08083E3EC81E08083E0ECBB
:101CF00082E08083E2EC81E08083EAE787E0808312
:101D00008068808310922B0210921B0210921D0299
:101D10008091D70081608093D70080EA8093D800BB
:101D200089B5806189BD89B5826089BD09B400FE2D
:101D3000FDCF81E090E00E94F0068091D8008F7C7A
:101D400080618093D8008091E000807F8093E000E4
:101D50008091E1008E7E8093E1008DE08093E2002F
:101D6000559A209A81EC80937C0081EF85B987EEAB
:101D700084B984E38BB984EF8AB9769A6E9880EF40
:101D800081BB10BA80E58CBD11E01DBD85E00E94CD
:101D900087075F9A85E00E9487075C98ECE5F6E08C
:101DA00085910E949206E936D9F75C9A81E8809382
:101DB00064001093650080E00E94DC040E948A06A3
:101DC00087FF12C05C9885EA0E9492065C9A2E9862
:101DD0002F982D988091640080628093640081E048
:101DE00083BF889513BEFCCF0E948A0682FF37C04E
:101DF0002D980E948A0684788438A1F42D9A88EC64
:101E00000E9487072F986FEF82E090E00E9479127E
:101E100084EF91E00E94F0062F9A0E948A0684784F
:101E20008438D9F30E948A0684718431A1F42D9AF2
:101E300088EC0E9487072E9860E082E090E00E9484
:101E4000791284EF91E00E94F0062E9A0E948A0691
:101E500084718431D9F388EC0E948707C5CF2D9A0D
:101E600082E090E00E947112882309F487C03E9AB4
:101E70003F9A81E090E00E947112282F2470F22E88
:101E800081FF0AC021112E9801EF1FEF0E948A06E0
:101E900086FF77C02E9A2F9A82E30E9487070E94BE
:101EA0008A068111F9CF68E089E696E00E944F0921
:101EB0002FB7F89482E496E090939900809398006D
:101EC00093E0909390008BE18093910010929500A5
:101ED00010929400809171008260809371002FBFF6
:101EE000909309015E9AE4E1F0E084E592ED60EF01
:101EF0007FEF25913591559145912851354909F448
:101F0000CA0180932E0290932F022591359155910D
:101F100045912851354909F4BA016093FA0170934B
:101F2000FB0172988BEA0E94E906729A10921102E4
:101F30001092100210920F0210920E027AEA272ECF
:101F40007BEA372E7EE0472EE4EEAE2EBB24B39420
:101F5000C12CDD24D39452E4552E63E0962E5E9876
:101F6000F8948091FC018111AAC083B7816083BF7E
:101F70007894889583B78E7F83BFF2CF3E983F9841
:101F800078CFFF2029F00430110511F42E9A2F98F4
:101F900081E00E94DC04302F3770E32EA801F3E0CB
:101FA00055954795FA95E1F7CA019695982F882798
:101FB00097958795805D9D4F70E060E04E3FEFEF15
:101FC0005E0769F130E020E0DB01A455BA4F6C01F7
:101FD000F0E8CF0ED11CFD01E20FF31FE491F0E019
:101FE0003F010E2C02C0660C771C0A94E2F74F3FAB
:101FF000540739F05C01A20EB31EF50194889628AF
:10200000948AEE2039F05601A20EB31EF501948891
:102010009728948A2F5F3F4F28353105E1F64F5FAF
:102020005F4F80589F4F685A7F4F603B710531F674
:1020300080E00E94DC048FE00E9487070F5F1F4F43
:102040000931110509F022CFFF2011F02F9A2D98A8
:1020500080E991E00E94F0062D9A81E090E00E94D4
:10206000711280FF19CF8AE090E00E9471129FEFF9
:10207000980F9E3F08F010CF22E330E0309311021A
:102080002093100228E330E030930F0220930E02D9
:102090000AE010E0682F80E896E00E94FF070F5FDB
:1020A0001F4FC8010E9471120031110599F780E09D
:1020B0000E94DC0488EE93E00E94F006EDCE1092C0
:1020C000FC017894109115022FE741E050E061E0A7
:1020D00070E080EB95E00E94AD0862E083E796E057
:1020E0000E944F092FEF47E051E061E070E080E38C
:1020F00092E00E94AD0862E081E796E00E944F09FD
:102100008EEF810F1F5F8E3F30F48091FD018F5F56
:102110008093FD0110E0109315025E9A80912B01CF
:102120008F3F31F080912D02811102C00E94A207E1
:102130008091FD018823A1F01091140281508093B9
:10214000FD018091FF018093FE010E948A06809329
:10215000FF011130C1F008F427C1133009F418C190
:10216000E0901502F12C90911402992309F41FC1FB
:10217000913009F432C120E030E0232B09F4EFCE96
:102180000E940000E6CE84E00E94AE06882389F01B
:1021900080910D0190910E01A0910F018A3A9B4A06
:1021A000AE4009F0CAC0A0920D01B0920E01C092DB
:1021B0000F0188E00E94AE06882309F48DC060916B
:1021C0001E0170E080E093E00E94CD12842FB901DF
:1021D00062597846834D0E94DD0663E070E0CE01CF
:1021E00001960E94BF068A816B80712C812C862CFF
:1021F00077246624782A8981682A8FB7F894109208
:1022000072009FEF90932B019FE79093CF008FBFB9
:1022100010920B0210920A02109209021092080208
:102220001092070210920602109205021092040208
:1022300061147104810409F44FC0882DB3010E9418
:10224000DD0662E070E0CE0182960E94BF062BA1FF
:1022500030E0922F882788279F704AA1842B909383
:1022600007028093060244E0359527954A95E1F7E9
:1022700020930302009781F12B3070F590930902AF
:102280008093080222E0620E711C811C60920002A1
:10229000709201028092020210922D0280E28093DD
:1022A0002C0210922B01D0920A0180912B018F3FBA
:1022B00031F080912D02811102C00E94A20750923C
:1022C000C000D092C1008FEF8093D1008FE7809340
:1022D000CF0084E0809372000E948A0687FF0CC0C2
:1022E0008091120290911302803291052CF4019694
:1022F00090931302809312020E948A0684FF0DC0FD
:102300008091120290911302813C3FEF93072CF0D1
:102310000197909313028093120210910D021123E2
:10232000D9F00E948A068076A1F080910C02882361
:1023300059F0815080930C0213CF20920D013092FE
:102340000E0140920F0135CF1032F9F40E94D908E6
:1023500007CF10920D0204CF80E20E94AE068823C0
:1023600041F080E280930D028DE280930C020E9486
:10237000D90880E40E94AE06882309F4F1CE80E4F7
:1023800080930D029DE290930C020E94C708E8CE54
:1023900088E00E94AE0681111092140284E00E942F
:1023A000AE06882309F4DCCED0921402D9CEE2E046
:1023B000EE16F10408F0DFCE109211021092100216
:1023C00010920F0210920E0281E591E00E946509C1
:1023D00087E591E00E946509CECEE0E3F2E091113D
:1023E0009FEF8FEF91939193919391938150D0F7B9
:1023F00080911E019701899D200D311D11243DA35F
:102400002CA360900D0170900E0180900F016091DF
:102410000C0170E080910B018901482D930190E03F
:102420000E94EB0820911B0130911C0140911D017D
:10243000809117016091120270911302680F711D53
:10244000809116010CA11DA190E00E94EB0832E0E2
:10245000E316F10408F03FC08AEA68168BEA7806B2
:102460008EE0880641F48AE591E00E94650987E5DF
:1024700091E00E94650910921102109210021092D0
:102480000F0210920E0281E691E00E9465092091F0
:102490001E0130E02F5F3F4F032E000C440B550B05
:1024A00019A27E0191E2E90EF11CCA01B9012AE0EC
:1024B00030E040E050E00E948B12605DF7016293D3
:1024C0007F01211531054105510579F7309709F450
:1024D00052CECF017FCF32E0E316F10409F04BCEAC
:1024E000CACFF999FECF92BD81BDF89A992780B5E0
:1024F0000895262FF999FECF92BD81BDF89A0197D4
:1025000000B4021639F01FBA20BD0FB6F894FA9A3B
:10251000F99A0FBE0895A1E21A2EAA1BBB1BFD015A
:102520000DC0AA1FBB1FEE1FFF1FA217B307E407B2
:10253000F50720F0A21BB30BE40BF50B661F771F0A
:10254000881F991F1A9469F76095709580959095EA
:102550009B01AC01BD01CF010895991B79E004C036
:10256000991F961708F0961B881F7A95C9F78095D2
:10257000089597FB072E16F4009407D077FD09D035
:102580000E94DA1207FC05D03EF4909581959F4F8A
:102590000895709561957F4F0895699F9001899F77
:1025A000402D799F300D411D112497FF0895361B52
:1025B000470B0895AA1BBB1B51E107C0AA1FBB1FF5
:1025C000A617B70710F0A61BB70B881F991F5A95BF
:1025D000A9F780959095BC01CD010895EE0FFF1FDE
:1025E0000590F491E02D0994DC0101C06D934150F8
:1025F0005040E0F70895F894FFCF420087DDDC10EB
:1026000035BC5C01014800E40100960002010000B5
:102610000008A656096C001800FFFFFFFF00E1004C
:102620000000000000FF00C18081000000000000E9
:10263000003A0504075B055005A1055F057D05000F
:10264000000000FF075D0662096109617264657838
:10265000000D0A005368696E7921004E6F2E00004C
:1074000080E189BD82E189BD09B400FEFDCF089508
:10741000D5D569F08091E9008F931092E900AAD444
:1074200083FF01C029D58F9187708093E90008956B
:107430008EEF0090E10008220092E1000895F20131
:10744000F999FECFF2BDE1BD0895F9DFF89A80B554
:1074500008C0F5DF1FBA80BD0FB6F894FA9AF99A02
:107460000FBE31962F010895E0E0F0E085919491F0
:107470000196089572985F9A8BEA34D01092890031
:107480008AEF8093880082E080936F0083E080938E
:107490008100EFE6F7E785913AD0EB37E1F781E03D
:1074A0008093D7008AE482BF1092D8001092E20045
:1074B0001092DA001092E10080E808D019BC1EBAE0
:1074C0001092E0006DD489E05ED481E98093D80009
:1074D0000895A3E6B1E090E81AD08D939A95E1F76C
:1074E000089586E008D010C083E005D08F2F0FD01C
:1074F0008E2F0DD080E05E9A729809C005D085E08D
:10750000FADF05D080FDFDCF729A5E9808958EBD9A
:107510008DB587FFFDCF8EB508958FE08221E9F705
:10752000F3DFE3E6F6E090EB5C98892FF0DF80E193
:10753000EEDF5C9A8191EBDF83E68E278F77D1F7C0
:107540009395983B89F70895E3E6F1E097FC36C000
:1075500094FC4DC092FE089596849920D1F3F8943E
:10756000C089D78520E030E080E090E4AFEFBFEF46
:10757000119689199040E0F72D01BD4F8D0127FD2F
:1075800013C0E0E0F8E011928EE7819392E4E117F6
:1075900091939AE508F092E4E334C9F7819310825D
:1075A000BFDFFE012196A0DF94DFF9010AD5205844
:1075B0003F4F040D151D9A9411F71BC28301282D0E
:1075C00060906C0170906B0143D019F48823C1F76F
:1075D0000895380188243CD0C9F580916A0182174A
:1075E00009F4830160906E0170906D01F4CF80E129
:1075F000982E60906E0170906D012AD059F4882306
:10760000B1F708959FEF95FC03C096FE089591E0B1
:1076100097FB890E662477248301222719D0B1F4C1
:107620008823A1F380916A0136F0881650F48217FE
:1076300030F0213003C0881520F4281710F483019E
:10764000282F60906E0170906D01E8CF3801822E76
:10765000F3014ADF3EDFC3E6D1E0E8E6F7E7099051
:107660008591081621F4EF36D1F7088080104CCFB1
:10767000C9E031DFCA95E9F7D0E195FC1FC094FC61
:1076800038C096FC01C051C0C3E6D2E0E3E6F6E0A4
:1076900098E088E78E0F00840192E817E1F7884FA1
:1076A00009900192E817E1F7C858DF4F9A9589F7DA
:1076B00034DFC85FD340C33E49F749C0C3E6D6E0D4
:1076C000EBE5FAE098E08E2F885702900086E817E5
:1076D000E1F738960A900292E817E1F73897C85711
:1076E000D0409A9581F719DFC850DC4FC33E41F76F
:1076F0002EC0A3EEB6E0E3E6F6E09AE0C6E00D9019
:1077000080818025807F802582958193A336B9076B
:1077100009F4B2E0E336F90709F4F2E0E336FC07D6
:1077200071F7FBDEDA9529F712C0A3EEB9E0E3E6C4
:10773000FAE092E00E90829180258F7080258295EC
:107740008083E336F907B1F7E8DEDA9571F7882729
:10775000089580E880BF8DEA8093640089E9809372
:10776000650085E083BF889541524455424F59D505
:10777000F08D14A1C881CFD9F1AF000000FFFFCF79
:10778000CFFFFFFFFFCFCFFFFF0000FE067E7E068C
:10779000FE46565616FE0656461EFE3F61E9E3FFBC
:1077A000E3EBE3FFE3EBE3FFE16B3F0012011001CA
:1077B0000200000841233600010000000001090218
:1077C0003E000201008032090400000102020100B3
:1077D0000524001001042402040524060001070505
:1077E00082030800FF09040100020A0000000705E7
:0C77F000040210000107058302100001D4
:1078000011241FBE04B714BE88E18093600010925B
:1078100060008EEF9AE09EBF8DBF222433242101A9
:107820003101410180E88AC00F928F939F931F928C
:107830000FB60F9211244F936F938091DA0080FF5F
:1078400037C023C00F920FB68F939F93EF93FF9390
:1078500088278093850080938400E0E5F1E09281A1
:10786000907261F490818917980B908309F45D9A66
:1078700091818917980B918309F4289A239411F424
:107880008315381EFF91EF9154C08091D80080FF7E
:107890000FC08091DA008E7F8093DA008091D9004A
:1078A00080FF04C0ADDD81E08EBB02C019BC1EBAF2
:1078B0008091E10080FF0BC060D280FF08C060D2E1
:1078C0008091D800806202DE19BC85E08EBB809179
:1078D000E10084FF1AC051D284FF17C091DD80916E
:1078E000D8008F7DF3DD8FEEA4DD47D28F7E8160DF
:1078F0004AD280915301882331F48091E30087FDBF
:1079000002C081E001C084E08EBB8091E10083FF72
:107910000CC033D283FF09C087EF8BDD82E08EBBC2
:107920001092530185DD2CD23BD26F914F910F9075
:107930001F909F918F910FBE0F90189580936100BB
:1079400010926100B1E0B5BF82E085BF81EF85B9DB
:1079500087EE84B984E08DB984E48EB910BA83EFE0
:1079600081BB80E68BB980EF8AB980E58CBDBDBD57
:10797000A0E0ECEAF7E705900D92A035E1F78C91D5
:107980001D92BB30E1F7893B11F4ACDDE2CE000083
:1079900004C07C9B02C068DD61F56CDD789458DE24
:1079A00071F0ABE9B7E0EBE7F7E790E105900D92F6
:1079B0009A95E1F7A059BF4FEB3AB9F7B2DD56D02F
:1079C00027DD80915201807881F48FB18095807F8E
:1079D00066991C9B8460982E15DE89EB8825809320
:1079E000FF0A8110B1DD92FC02C0332042F73CDD7A
:1079F00031F3F89489EB76DD81E08093E00010921A
:107A00006F0010928100109285001092840081E036
:107A100085BF15BE2E9A2F9A2D9A5D9A289A0C949E
:107A20000000A6D107C057D102C0C8D239F0A2D1F8
:107A300082FFFBCF85FFF7CF8091F1000895082EDC
:107A400083E097D185FD07C08CD102C0B7D269F021
:107A500091D180FFFBCF0092F100809152018072A2
:107A600021F45D9884E680935001089581D182FFCE
:107A700034C180915201807221F4289884E6809369
:107A80005101CFDF182F853431F422248EE7382EB0
:107A9000D6DC8DE00BC1843511F4C3DFFACF8C3412
:107AA000C1F38035B1F3843721F484E4C8DF80E08A
:107AB000FDC0813611F489E5F9C0813429F4B1DFC4
:107AC000582EAFDF482EE5CF803711F483E5EEC0A6
:107AD000833539F4E8E6F7E78591B1DFEF36E1F772
:107AE000E6C0863521F482E3AADF80E3DFC0863773
:107AF00061F481E3669B8E5F1C9B8F5FA0DF8FB17B
:107B0000809582958F708F5BD1C08837A9F489DF0B
:107B100080935201289A84FD28985D9A83FD5D9890
:107B20002E9A81FD2E982F9A82FD2F982D9A80FDF6
:107B30002D9887FD8824ADCF8A3649F48FE9DBDCA8
:107B4000C3E0E5DC7CDFCA95E1F7DEDCB0C083375B
:107B500031F487E874DF85E972DF8EE1A7C08536EE
:107B600039F4E0E8F3E740D2E058F040E0F791CF95
:107B7000823631F489E563DF80E061DF80E896C01A
:107B8000823419F0873609F07DC033244ADFD82FBC
:107B900048DFC82F46DF082F8354843008F085C0A3
:107BA000063411F4440C551CF20110926F00173684
:107BB000B9F4033489F483E098DCA9DC8EB51EBCEB
:107BC0003EDF0DB42197D1F79FDC08C0063411F4D5
:107BD000859101C03ADC33DF2197C2F72F014AC0FB
:107BE0000334A9F4E11104C07CDC88ED7EDC86DC82
:107BF00078DC82E07ADC15DF0DB48EBDCA95D9F74A
:107C0000319686DC7BDCDA9569F72F0131C00634CA
:107C1000F1F49F01F437D8F4E7D119C002DF06343C
:107C200061F4C0FB46F0F43728F4182E81E087BFDA
:107C3000E89511243296082E0AC0043439F4DF0185
:107C4000B370AD59B94F8D93319601C002DC2197C5
:107C50002AF7043431F42F01F370FE2B49F461DC70
:107C600007C0063429F42F01F901F43708F4BAD11A
:107C70008DE0E5DE063411F45694479482E080935B
:107C80006F0015C08237E1E049F08634E0E031F062
:107C90008E34E3E019F0813531F4E2E0F0E089E080
:107CA00087BF849103C08B3111F08FE3C8DE83E07E
:107CB000BCDB57D095FF03C009C080D171F05AD00A
:107CC00080FFFBCF4ED002C079D139F053D080FF76
:107CD000FBCF84E0AADB8BE745C00895E4E5F1E043
:107CE00067E090915B0180915C01913231F0913AB3
:107CF000F1F58132E1F560D183C0823281F4819166
:107D0000805B8191844099F580915D0180FD2FC059
:107D1000F89481E08093E0001092FF0A71CD8032E8
:107D200031F54AD14BD1E9F08530D9F023D083FD2C
:107D300018C082FFF7CF04C07FDE8193615031F01D
:107D40009091F3008091F200892BB1F7C4DF6115A7
:107D500049F704C033D129F0853019F00BD080FFEA
:107D6000F9CF8EE79091E80089238093E800089589
:107D700084E05BDB8091E80008958091E200089543
:107D8000FCDF8E7F80618093E200089582E061ECE9
:107D900009D083E061E802D084E060E842E103C0FA
:107DA00080E060E042E041DB81E007D01092ED002E
:107DB0006093EC004093ED0008959091EB00892BC7
:107DC0008093EB00089560E0923029F0913029F41F
:107DD000E0E062E102C0E2E16EE3F1E0089580914B
:107DE0005B0188234CF402C0E9D0C1F3C3DF82FFFA
:107DF000FBCF71CFE3D091F3BDDF80FFFBCFB1CFDD
:107E000040916101509162014617510520F0462FC3
:107E1000611509F4A6DF50E022C0D0D061F18530B1
:107E200051F1A8DF83FD57CFA5DF82FD21C080FF80
:107E300016C03091F3002091F20006C0819180932A
:107E4000F10041502F5F3F4F411519F028303105A7
:107E5000A8F350E02830310509F451E082DF4115E4
:107E6000E1F65523D1F604C0A9D029F0853019F0E8
:107E700081DF82FFF9CF2FCFEBE5F1E0DDDD8193EC
:107E8000E336E1F72BDF76DF83FF91C080915B0162
:107E900090915C01913009F170F09330F1F09530E0
:107EA00009F444C0963009F456C0983009F460C013
:107EB000993059F767C0823841F780915F01B4DA91
:107EC0002091EB001092E90077D022952695217041
:107ED0002093F1001092F10052C0882311F08230FB
:107EE000A1F68F71823089F680915D018823D1F4EB
:107EF00020915F01277049F22093E9008091EB0007
:107F000080FF10C0933011F480E20BC080E155DF98
:107F100081E0880F2A95E9F78093EA001092EA0041
:107F200088E04BDF1092E90047D02AC0882391F403
:107F300010915D0110680FB7F8943ED050DF1ADF42
:107F400080FFFDCF1093E300103883E009F482E056
:107F50008EBB0FBF2CC08058823048F580915D01E8
:107F600090915E0130DF603011F126D049DF1FC0F3
:107F70008038E9F421D0809153018093F100F1DE43
:107F80002EDF15C0882399F490915D01923078F42A
:107F90009093530111D023DF80915301882321F462
:107FA0008091E30091E087FD94E09EBBEFDEE2DE8E
:107FB00083FF089580E201DF87EFD4CE8EB388235C
:107FC0000895A3E6B1E0F437B8F40ED090E40D9034
:107FD0001D9081E087BFE89532969A95C1F71124EC
:107FE000E058F04085E001C083E001D081E187BF27
:107FF000E89507B600FCFDCF08953230E4CFFBDCF6
:00000001FF
